{
  "contractName": "TodoList",
  "abi": [
    {
      "inputs": [],
      "payable": false,
      "stateMutability": "nonpayable",
      "type": "constructor"
    },
    {
      "anonymous": false,
      "inputs": [
        {
          "indexed": false,
          "internalType": "uint256",
          "name": "id",
          "type": "uint256"
        },
        {
          "indexed": false,
          "internalType": "string",
          "name": "patientName",
          "type": "string"
        },
        {
          "indexed": false,
          "internalType": "string",
          "name": "diagnosis",
          "type": "string"
        },
        {
          "indexed": false,
          "internalType": "uint256",
          "name": "timestamp",
          "type": "uint256"
        },
        {
          "indexed": false,
          "internalType": "address",
          "name": "doctor",
          "type": "address"
        }
      ],
      "name": "HealthRecordCreated",
      "type": "event"
    },
    {
      "anonymous": false,
      "inputs": [
        {
          "indexed": false,
          "internalType": "uint256",
          "name": "id",
          "type": "uint256"
        },
        {
          "indexed": false,
          "internalType": "string",
          "name": "patientName",
          "type": "string"
        },
        {
          "indexed": false,
          "internalType": "string",
          "name": "diagnosis",
          "type": "string"
        },
        {
          "indexed": false,
          "internalType": "uint256",
          "name": "timestamp",
          "type": "uint256"
        },
        {
          "indexed": false,
          "internalType": "address",
          "name": "doctor",
          "type": "address"
        }
      ],
      "name": "HealthRecordDeleted",
      "type": "event"
    },
    {
      "constant": true,
      "inputs": [
        {
          "internalType": "uint256",
          "name": "",
          "type": "uint256"
        }
      ],
      "name": "healthRecords",
      "outputs": [
        {
          "internalType": "uint256",
          "name": "id",
          "type": "uint256"
        },
        {
          "internalType": "string",
          "name": "patientName",
          "type": "string"
        },
        {
          "internalType": "string",
          "name": "diagnosis",
          "type": "string"
        },
        {
          "internalType": "uint256",
          "name": "timestamp",
          "type": "uint256"
        },
        {
          "internalType": "address",
          "name": "doctor",
          "type": "address"
        }
      ],
      "payable": false,
      "stateMutability": "view",
      "type": "function"
    },
    {
      "constant": true,
      "inputs": [],
      "name": "owner",
      "outputs": [
        {
          "internalType": "address",
          "name": "",
          "type": "address"
        }
      ],
      "payable": false,
      "stateMutability": "view",
      "type": "function"
    },
    {
      "constant": true,
      "inputs": [],
      "name": "taskCount",
      "outputs": [
        {
          "internalType": "uint256",
          "name": "",
          "type": "uint256"
        }
      ],
      "payable": false,
      "stateMutability": "view",
      "type": "function"
    },
    {
      "constant": false,
      "inputs": [
        {
          "internalType": "string",
          "name": "_patientName",
          "type": "string"
        },
        {
          "internalType": "string",
          "name": "_diagnosis",
          "type": "string"
        },
        {
          "internalType": "uint256",
          "name": "_timestamp",
          "type": "uint256"
        },
        {
          "internalType": "address",
          "name": "_doctor",
          "type": "address"
        }
      ],
      "name": "createHealthRecord",
      "outputs": [],
      "payable": false,
      "stateMutability": "nonpayable",
      "type": "function"
    },
    {
      "constant": false,
      "inputs": [
        {
          "internalType": "uint256",
          "name": "_id",
          "type": "uint256"
        }
      ],
      "name": "deleteHealthRecord",
      "outputs": [],
      "payable": false,
      "stateMutability": "nonpayable",
      "type": "function"
    },
    {
      "constant": false,
      "inputs": [
        {
          "internalType": "uint256",
          "name": "_id",
          "type": "uint256"
        }
      ],
      "name": "toggleCompleted",
      "outputs": [],
      "payable": false,
      "stateMutability": "nonpayable",
      "type": "function"
    }
  ],
  "bytecode": "0x6080604052600080553480156200001557600080fd5b50600180546001600160a01b0319163390811790915560408051808201825260088152674a6f686e20446f6560c01b6020808301919091528251808401909352600f83526e0496e697469616c20436865636b757608c1b90830152620000899290919042906001600160e01b036200008f16565b620003d9565b6000845111620000e6576040805162461bcd60e51b815260206004820152601c60248201527f50617469656e74206e616d652063616e6e6f7420626520656d70747900000000604482015290519081900360640190fd5b60008351116200013d576040805162461bcd60e51b815260206004820152601960248201527f446961676e6f7369732063616e6e6f7420626520656d70747900000000000000604482015290519081900360640190fd5b6000805460019081018083556040805160a08101825282815260208082018a81528284018a9052606083018990526001600160a01b0388166080840152938652600281529190942084518155915180519293620001a39390850192919091019062000334565b5060408201518051620001c191600284019160209091019062000334565b506060820151816003015560808201518160040160006101000a8154816001600160a01b0302191690836001600160a01b031602179055509050507f4ac7e8c7cb805d89c54ea97c3dfbc0e1ea6bc00af5a5bc0fa2ddd17fd2980dac60005485858585604051808681526020018060200180602001858152602001846001600160a01b03166001600160a01b03168152602001838103835287818151815260200191508051906020019080838360005b838110156200028b57818101518382015260200162000271565b50505050905090810190601f168015620002b95780820380516001836020036101000a031916815260200191505b50838103825286518152865160209182019188019080838360005b83811015620002ee578181015183820152602001620002d4565b50505050905090810190601f1680156200031c5780820380516001836020036101000a031916815260200191505b5097505050505050505060405180910390a150505050565b828054600181600116156101000203166002900490600052602060002090601f016020900481019282601f106200037757805160ff1916838001178555620003a7565b82800160010185558215620003a7579182015b82811115620003a75782518255916020019190600101906200038a565b50620003b5929150620003b9565b5090565b620003d691905b80821115620003b55760008155600101620003c0565b90565b610c5e80620003e96000396000f3fe608060405234801561001057600080fd5b50600436106100625760003560e01c8063455f5024146100675780635a6106aa146100865780638da5cb5b146101c1578063b665c0d3146101e5578063b6cb58a514610307578063d5ff800114610321575b600080fd5b6100846004803603602081101561007d57600080fd5b503561033e565b005b6100846004803603608081101561009c57600080fd5b8101906020810181356401000000008111156100b757600080fd5b8201836020820111156100c957600080fd5b803590602001918460018302840111640100000000831117156100eb57600080fd5b91908080601f016020809104026020016040519081016040528093929190818152602001838380828437600092019190915250929594936020810193503591505064010000000081111561013e57600080fd5b82018360208201111561015057600080fd5b8035906020019184600183028401116401000000008311171561017257600080fd5b91908080601f01602080910402602001604051908101604052809392919081815260200183838082843760009201919091525092955050823593505050602001356001600160a01b0316610341565b6101c96105da565b604080516001600160a01b039092168252519081900360200190f35b610202600480360360208110156101fb57600080fd5b50356105e9565b604051808681526020018060200180602001858152602001846001600160a01b03166001600160a01b03168152602001838103835287818151815260200191508051906020019080838360005b8381101561026757818101518382015260200161024f565b50505050905090810190601f1680156102945780820380516001836020036101000a031916815260200191505b50838103825286518152865160209182019188019080838360005b838110156102c75781810151838201526020016102af565b50505050905090810190601f1680156102f45780820380516001836020036101000a031916815260200191505b5097505050505050505060405180910390f35b61030f610736565b60408051918252519081900360200190f35b6100846004803603602081101561033757600080fd5b503561073c565b50565b6000845111610397576040805162461bcd60e51b815260206004820152601c60248201527f50617469656e74206e616d652063616e6e6f7420626520656d70747900000000604482015290519081900360640190fd5b60008351116103ed576040805162461bcd60e51b815260206004820152601960248201527f446961676e6f7369732063616e6e6f7420626520656d70747900000000000000604482015290519081900360640190fd5b6000805460019081018083556040805160a08101825282815260208082018a81528284018a9052606083018990526001600160a01b038816608084015293865260028152919094208451815591518051929361045193908501929190910190610af0565b506040820151805161046d916002840191602090910190610af0565b506060820151816003015560808201518160040160006101000a8154816001600160a01b0302191690836001600160a01b031602179055509050507f4ac7e8c7cb805d89c54ea97c3dfbc0e1ea6bc00af5a5bc0fa2ddd17fd2980dac60005485858585604051808681526020018060200180602001858152602001846001600160a01b03166001600160a01b03168152602001838103835287818151815260200191508051906020019080838360005b8381101561053557818101518382015260200161051d565b50505050905090810190601f1680156105625780820380516001836020036101000a031916815260200191505b50838103825286518152865160209182019188019080838360005b8381101561059557818101518382015260200161057d565b50505050905090810190601f1680156105c25780820380516001836020036101000a031916815260200191505b5097505050505050505060405180910390a150505050565b6001546001600160a01b031681565b60026020818152600092835260409283902080546001808301805487519281161561010002600019011695909504601f81018590048502820185019096528581529094919390929091908301828280156106845780601f1061065957610100808354040283529160200191610684565b820191906000526020600020905b81548152906001019060200180831161066757829003601f168201915b50505060028085018054604080516020601f60001961010060018716150201909416959095049283018590048502810185019091528181529596959450909250908301828280156107165780601f106106eb57610100808354040283529160200191610716565b820191906000526020600020905b8154815290600101906020018083116106f957829003601f168201915b5050505060038301546004909301549192916001600160a01b0316905085565b60005481565b6001546001600160a01b031633146107855760405162461bcd60e51b8152600401808060200182810382526026815260200180610c046026913960400191505060405180910390fd5b61078d610b6e565b600260008381526020019081526020016000206040518060a001604052908160008201548152602001600182018054600181600116156101000203166002900480601f01602080910402602001604051908101604052809291908181526020018280546001816001161561010002031660029004801561084e5780601f106108235761010080835404028352916020019161084e565b820191906000526020600020905b81548152906001019060200180831161083157829003601f168201915b5050509183525050600282810180546040805160206001841615610100026000190190931694909404601f810183900483028501830190915280845293810193908301828280156108e05780601f106108b5576101008083540402835291602001916108e0565b820191906000526020600020905b8154815290600101906020018083116108c357829003601f168201915b5050509183525050600382015460208201526004909101546001600160a01b0316604090910152805190915061095d576040805162461bcd60e51b815260206004820152601c60248201527f4865616c7468207265636f726420646f6573206e6f7420657869737400000000604482015290519081900360640190fd5b60008281526002602052604081208181559061097c6001830182610ba6565b61098a600283016000610ba6565b60038201600090556004820160006101000a8154906001600160a01b03021916905550507f17531b9b97b9d28674c1eb0b69a8a1ff4c77a2e6fb773b2a4cdee8160aa4588181600001518260200151836040015184606001518560800151604051808681526020018060200180602001858152602001846001600160a01b03166001600160a01b03168152602001838103835287818151815260200191508051906020019080838360005b83811015610a4d578181015183820152602001610a35565b50505050905090810190601f168015610a7a5780820380516001836020036101000a031916815260200191505b50838103825286518152865160209182019188019080838360005b83811015610aad578181015183820152602001610a95565b50505050905090810190601f168015610ada5780820380516001836020036101000a031916815260200191505b5097505050505050505060405180910390a15050565b828054600181600116156101000203166002900490600052602060002090601f016020900481019282601f10610b3157805160ff1916838001178555610b5e565b82800160010185558215610b5e579182015b82811115610b5e578251825591602001919060010190610b43565b50610b6a929150610be6565b5090565b6040518060a001604052806000815260200160608152602001606081526020016000815260200160006001600160a01b031681525090565b50805460018160011615610100020316600290046000825580601f10610bcc575061033e565b601f01602090049060005260206000209081019061033e91905b610c0091905b80821115610b6a5760008155600101610bec565b9056fe4f6e6c7920746865206f776e65722063616e20706572666f726d207468697320616374696f6ea265627a7a7231582075e6b9670fc85eadf59b9fb11ece2695ae6fee33b64e1c3659c461a473f1e3fa64736f6c63430005100032",
  "source": "pragma solidity ^0.5.0;\n\ncontract TodoList {\n  uint public taskCount = 0;\n  address public owner; // Add owner variable to store the contract owner's address\n\n  struct HealthRecord {\n    uint id;\n    string patientName;\n    string diagnosis;\n    uint timestamp;\n    address doctor;\n  }\n\n  mapping(uint => HealthRecord) public healthRecords;\n\n  event HealthRecordCreated(\n    uint id,\n    string patientName,\n    string diagnosis,\n    uint timestamp,\n    address doctor\n  );\n\n  event HealthRecordDeleted(\n    uint id,\n    string patientName,\n    string diagnosis,\n    uint timestamp,\n    address doctor\n  );\n\n  modifier onlyOwner() {\n    require(msg.sender == owner, \"Only the owner can perform this action\");\n    _;\n  }\n\n  constructor() public {\n    owner = msg.sender; // Set the contract deployer as the owner\n    createHealthRecord(\"John Doe\", \"Initial Checkup\", now, msg.sender);\n  }\n\n  function createHealthRecord(string memory _patientName, string memory _diagnosis, uint _timestamp, address _doctor) public {\n    require(bytes(_patientName).length > 0, \"Patient name cannot be empty\");\n    require(bytes(_diagnosis).length > 0, \"Diagnosis cannot be empty\");\n\n    taskCount++;\n    healthRecords[taskCount] = HealthRecord(taskCount, _patientName, _diagnosis, _timestamp, _doctor);\n    emit HealthRecordCreated(taskCount, _patientName, _diagnosis, _timestamp, _doctor);\n  }\n\n  function deleteHealthRecord(uint _id) public onlyOwner {\n    HealthRecord memory recordToDelete = healthRecords[_id];\n    require(recordToDelete.id != 0, \"Health record does not exist\");\n\n    delete healthRecords[_id];\n    emit HealthRecordDeleted(recordToDelete.id, recordToDelete.patientName, recordToDelete.diagnosis, recordToDelete.timestamp, recordToDelete.doctor);\n  }\n\n  function toggleCompleted(uint _id) public {\n    // Implementation for toggling completed status can be added if needed.\n  }\n\n  // Additional functions for updating or querying health records can be added as needed.\n}\n",
  "sourcePath": "C:\\Users\\vikra\\Downloads\\eth-todo-list-master\\eth-todo-list-master\\contracts\\TodoList.sol",
  "compiler": {
    "name": "solc",
    "version": "0.5.16+commit.9c3226ce.Emscripten.clang"
  },
  "schemaVersion": "3.4.16",
  "updatedAt": "2023-12-19T15:31:42.011Z",
  "networkType": "ethereum",
  "devdoc": {
    "methods": {}
  },
  "userdoc": {
    "methods": {}
  }
}